:101AB300121420300605C206120976300905C20940
:101AC300121BD5300705C207121A66121AF280E3F9
:03064B00011E008D
:10173B0090E6BAE090E000F012008090E680E03096
:10174B00E71300000090E6247402F0000000E49020
:10175B00E625F08011000000E490E624F000000084
:10176B0090E6257440F0E490E6FBF090E60174EA15
:05177B00F0D28CD32226
:101B850090E000E090E740F0E490E68AF090E68B84
:041B950004F0D32263
:0D1BF50090E6BAE090E001F0120080D322EB
:101B990090E001E090E740F0E490E68AF090E68B6F
:041BA90004F0D3224F
:051C3800120080D32220
:10017800E4F522F523F524F525F526F527F531F5DF
:1001880030F52FF52ED20190E6BBE0F52F90E6BDB5
:10019800E0F53090E6BCE0F53190E6BAE064A67090
:1001A8007190E6A0E04480F07F02120E6E782E1265
:1001B8000C56EF5403FFE48F1EAF31AE30AD2FACB9
:1001C8002E7802120C108F318E308D2F8C2EE51E5A
:1001D8007016E53124FFFFE53034FFFEE52F34FFCC
:1001E800FDE52E34FFFC8008AF31AE30AD2FAC2ECC
:1001F8008F318E308D2F8C2EE51E70047F04800287
:10020800AF1E8F1E851E35AB31AD30AF2F12126178
:10021800C14990E6BAE0120CC5062410061F18065C
:10022800102005FC2805F730060638061540061A82
:1002380050060B5202A36802B36C06297006297196
:100248000629720629730629740629750629760671
:10025800297706297806297906297A06297B062925
:100268007C06297D06297E06297F02A88802AD8A98
:1002780002A88C02AD8E02A89002AD9202A8940248
:10028800AD9602A89802AD9A02A89C02AD9E063BC4
:10029800A002B3A202B3A40000064712198EC149F6
:1002A8005380EFC20130010343801090E6BAE0F5B5
:1002B8002DE5312401F531E43530F530E4352FF5FD
:1002C8002FE4352EF52EE52D2470700261A524FE4D
:1002D800700261A524FE700261A524FE700261A56A
:1002E80024F260062402600261A8E4F51CF51D9062
:1002F800E68BF0121BE750267B007A007925121650
:10030800AC501BAB25AA26A927120B8EF528900006
:1003180001120BA7F529900002120BA7F52A90E607
:10032800A0E04480F07F01120E6EE5315407FFE42F
:100338008F1EAF31AE30AD2FAC2E7803120C108F5C
:10034800318E308D2F8C2EE51E7016E53124FFFF7F
:10035800E53034FFFEE52F34FFFDE52E34FFFC8049
:1003680008AF31AE30AD2FAC2E8F318E308D2F8C43
:100378002EE51E70047F088002AF1E8F1E4380404A
:10038800E4FFFEFDFCAB31AA30A92FA82EC3120B47
:10039800FF60047F088002AF1E8FA0813275226043
:1003A80090E6A0E04480F0E52270037522A07F016A
:1003B800120E6EE531540FFFE48F1EAF31AE30AD33
:1003C8002FAC2E7804120C108F318E308D2F8C2E7E
:1003D800E51E7016E53124FFFFE53034FFFEE52FFA
:1003E80034FFFDE52E34FFFC8008AF31AE30AD2F71
:1003F800AC2E8F318E308D2F8C2EE51E70047F1021
:100408008002AF1E8F1E5380BFE4FFFEFDFCAB31A0
:10041800AA30A92FA82EC3120BFF6007E5224410AB
:10042800FF8005E522451EFF8FA05380F7E52D12BA
:100438000CC505A56C05A58805A58A05A58C05A587
:100448008E05EA9005EA9205EA9405EA96046B9807
:10045800046B9A046B9C046B9E05A5A2046BA40014
:10046800000649E52DB4A40AE4F52B752C08C20052
:100478008008752BA0752C10D2001217F8E53124CE
:1004880001F531E43530F530E4352FF52FE4352E1C
:10049800F52EE52DB4A403438040E47F01FEFDFC66
:1004A800AB31AA30A92FA82EC3120BFF700B4380C3
:1004B80008E52B451EF5A08006E52B452CF5A01276
:1004C8001C32121B705380BF75A0E1A200920285F6
:1004D80023388524391216630524E5247002052380
:1004E800E53124FFF531E53034FFF530E52F34FFF1
:1004F800F52FE52E34FFF52E90E625E0702DB52476
:1005080008E523B4020330000DE5247004E52364F4
:10051800017053300050E4FFFEFDFCAB31AA30A956
:100528002FA82ED3120BFF403D8029E524644045B7
:1005380023700330000BE524642045237028300025
:1005480025E4FFFEFDFCAB31AA30A92FA82ED3125B
:100558000BFF4012A2009202852332852433121722
:10056800C0E4F523F524E4FFFEFDFCAB31AA30A975
:100578002FA82ED3120BFF4002819AA20092027577
:100588003800753900753A23851E3B1211B8A20050
:1005980092028523328524331217C0C149E4FFFE35
:1005A800FDFCAB31AA30A92FA82ED3120BFF400CAB
:1005B800121C327B007A00792E121962E5A054E0F1
:1005C800451EF5A0438008121B70E58030E60353F2
:1005D80080BFE526452745256067AB2AAD29AF28AA
:1005E800804C7B007A00792EAD1E1212FD805212CB
:1005F8001618804290E6BCE0FF121C45803812189D
:10060800A28033121568802E120F9B8029121B2E90
:100618008024121497801F121C23801A121C3D80FC
:100628001590E6BAE0FF90E6BCE0FDA3E0FB120DF2
:100638003A800E12186E90E6A0E04480F08002C363
:0306480022D32298
:0A1C190000010202030304040505A4
:02064E00C108E1
:10142000750A00750B907512007513A2750800758A
:1014300009CC7510007511EC75140175154C750CFF
:1014400000750DAC750E01750F0C1215C1D2E84375
:10145000D82090E668E0440BF090E65CE0443DF074
:10146000D2EA00000090E660E04402F0121BC19056
:10147000E6FB7402F090E600E054E5F090E60174BB
:101480000AF0120FF5121C0E121C02121501D200E6
:07149000121905538EF8222A
:101AF200200417E58030E209E58054FD4401F580B9
:0E1B020022E58054DF4403F580224380022256
:101BD500C28C90E600E054E7441054FDF0D20002B8
:021BE5001905E0
:101A6600121A8E20081690E682E030E704E020E1A4
:101A7600EF90E682E030E604E020E0E41219BB12C3
:081A86000FF5121C0E021C02F8
:1009760090E6B9E0B4B0091201785002618D618643
:1009860090E6B9E0B40C004002618690099725E034
:10099600734129419D6186611A6186618621AF6135
:1009A600864124411F4115411A90E6BBE024FE60B2
:1009B6002214603324FD601114602224067047E57A
:1009C6000A90E6B3F0E50B8037E51290E6B3F0E562
:1009D60013802DE50C90E6B3F0E50D8023E50E902F
:1009E600E6B3F0E50F801990E6BAE0FF1219E7AA20
:1009F60006A9077B01EA494B600CEE90E6B3F0EFDF
:100A060090E6B4F0419B90E6A0E04401F0419B12D1
:100A16001B99419B121BF5807C12173B617E121BB2
:100A260085617E90E6B8E0247F600F14601324028F
:100A3600705CA208E43325E08041E490E740F08052
:100A46003F90E6BCE0547EFF7E00E0D394807C00BD
:100A560040047D0180027D00EC4EFEED4F2419F529
:100A660082741C3EF583E493FF3395E0FEEF24A1E8
:100A7600FFEE34E68F82F583E0540190E740F0E420
:100A8600A3F090E68AF090E68B7402F0800790E679
:100A9600A0E04401F0617E90E6B8E024FE601124F7
:100AA60002706F90E6BAE0B40104C2088064805B0D
:100AB60090E6BAE0705590E6BCE0547EFF7E00E01A
:100AC600D394807C0040047D0180027D00EC4EFEC4
:100AD600ED4F2419F582741C3EF583E493FF33959C
:100AE600E0FEEF24A1FFEE34E68F82F583E054FEAC
:100AF600F090E6BCE05480131313541FFFE0540F2C
:100B06002F90E683F0E04420F0800790E6A0E044D2
:100B160001F08064121C38505F90E6B8E024FE6055
:100B26001C2402705390E6BAE0B40104D20880484F
:100B360090E6BAE06402604090E6A0803790E6BC9A
:100B4600E0547EFF7E00E0D394807C0040047D016B
:100B560080027D00EC4EFEED4F2419F582741C3E9A
:100B6600F583E493FF3395E0FEEF24A1FFEE34E630
:100B76008F82F583E04401F090E6A0E04480F02205
:080B860090E6A0E04401F0221A
:0D065000C104C105011600011700011800CA
:10126100E490E6CEF000000090E6CFEFF000000041
:1012710090E6D0EDF000000090E6D1EBF05380F75E
:101281001217F875360275370490E6D0E0FF90E644
:10129100D1E04FFF90E6CFE04F604B438040E53710
:1012A1004420F5A0E4F5BB121C2C3005DC75A041EF
:1012B10090E6D17401F0000000E490E6D0F0000067
:1012C1000090E6CFF0D203121BAD90E6D1E516F007
:1012D10000000090E6D0E517F000000090E6CFE5B1
:1012E10018F0C20580A385353743800890E6D17494
:0C12F10001F0D5369490E6487406F02217
:1015680090E6BCE06401703DD20475B202F5B49017
:10157800E618E054FEF090E61AE054F7F000000098
:1015880090E6047480F00000007406F0000000E4A7
:10159800F07F03FE120E6E90E6C2E054FBF090E678
:1015A800C17401F022C20475B2FBE4F58075B4FF82
:0915B800F5A01215C11215012263
:100F9B0090E6BCE05402C43354E0FFE05401C43388
:100FAB00333354804FFFE0540433333354F84FFF43
:100FBB00E0540825E04FFFE05410C3134FFFE054FB
:100FCB0020131313541F4FFFE05440C41354074F07
:100FDB00FFE05480C413131354014F90E740F0E427
:0A0FEB0090E68AF090E68B04F022F5
:101B2E0090E74074B5F0A37403F0E490E68AF09069
:061B3E00E68B7402F022A8
:10186E0090E6A0E04480F090E680E054FDF0E04485
:10187E0008F07FF47E011216F590E65D74FFF0908D
:10188E00E65FF05391EF90E6FB7402F090E680E095
:04189E0054F7F022E9
:1014970090E6BCE014601C146020146028240370DC
:1014A700449019B9E493FC74019390E740F0ECA3DE
:1014B700F0803B90E74074FE803090E7407405F081
:1014C700E4A3F0802943804075A0A190E6F1E09065
:1014D700E740F090E6F2E090E740F090E6F0E09029
:1014E700E741F0800990E7407405F0A304F0E49029
:0A14F700E68AF090E68B7402F02202
:041C3D005380DF22CF
:091C2300E58030E2034380202239
:1018A2005380BF75A04190E6F1E090E740F0E580FB
:1018B20090E6F230E206E04440FF8004E054BFFFCD
:1018C20090E740EFF0E490E68AF090E68B04F0E4D3
:0318D200F5A0225C
:1011B800300277E53BC3941040024160AB38AA394E
:1011C800A93A120BD424FFFDE5F034FFFCED25E02D
:1011D800FFEC33FE74012FF58274F83EF583E0F5D9
:1011E8003C74002FF58274F83EF583E0F53DC37436
:1011F80010953BFFE53DAE3CA807088005CEC3131C
:10120800CE13D8F9F53D8E3CED25E0FFEC33FE74A6
:10121800002FF58274F83EF583E53DF074012FF553
:101228008274F83EF583E53CF022AB38AA39A93A36
:10123800AE02AF01EF4E6020120BD424FFF582748A
:10124800F735F0F583E0FFC37408953BFEEFA80679
:09125800088002C313D8FCF02247
:1012FD008D358B328A338934E4F536F537120C3659
:10130D00E4FBFAF9F8C3120BFF503DE490E6CEF082
:10131D00000000AB32AA33A934900001120BA79044
:10132D00E6CFF0000000900002120BA790E6D0F07F
:10133D00000000900003120BA790E6D1F000000012
:10134D00121C2CD203121BAD00000090E6B0E0F58C
:10135D003700000090E6AFE0F536438008E5A05475
:10136D00E04535F5A0D202E4F538F539121663D211
:10137D0002753800753900753A3685353B1211B84E
:07138D0090E6487406F0220F
:10161800300432AFB190E6BCE030E2054307088001
:10162800035307F790E6BCE030E105430710800359
:101638005307EF90E6BCE030E005430740800353D2
:1016480007BF8FB1227E3B7FA31210005380BF7566
:0B165800A08190E6BCE090E6F1F022DB
:100D3A008F328D338B34E4F538F537F536F5359047
:100D4A00E6A0E04480F07E3B7FC4121000E5322426
:100D5A008824F8500280085380BF53A01F800B5389
:100D6A0080BFE5A0541F44C0F5A0E5322490B4101A
:100D7A00005039900D8725E05002058373A1A7A181
:100D8A00A7A1B1A1B1A1A7A1A7A1B1A1B1A1A7A1F1
:100D9A00A7A1B1A1B1A1A7A1A7A1B1A1B1E5805411
:100DAA00EF4408F580800843801880035380EFE4FD
:100DBA00853438F537F536F535AF38AE37AD36AC5C
:100DCA00357808120C23EEFAE533F538EAF537E4FC
:100DDA00F536F535E5382401F538E43EF537E435DE
:100DEA0036F536E43535F535E4FFFE7D01FCAB38E2
:100DFA00AA37A936A835C3120BFF700A7538FF75D2
:100E0A0037FFF536F535121C2CAF38AE37AD36AC98
:100E1A00357808120C1090E6F0EFF090E6F1E5381C
:100E2A00F0121C2CE53264796029E532647B602378
:100E3A00E532647D601DE532647F6017E5326471D6
:100E4A006011E5326473600BE53264756005E53262
:100E5A00B4771090E740E532F0E490E68AF090E645
:040E6A008B04F022E3
:10198E007E3B7FA31210005380BF90E6BCE0044460
:10199E0020F5A0121C2CE490E6F0F090E6BDE0904D
:0B19AE00E6F1F090E6A0E04480F0229B
:10065D00011F1160213B5960010101012B010107AF
:10066D00020202020306020205040706070606023D
:10067D00000000000000003F60213B0F60020202FD
:10068D0002013302070202020202030602050407F9
:10069D000607070602000000000000003F60213B36
:1006AD003860040404040333040702020202020347
:1006BD0006020504070607070602000000000000F9
:1006CD00003F60213AEE600101080807330107027F
:1006DD0002020202030602050407060707060200CE
:1006ED000000000000003F60213C2760101010103A
:1006FD000F33100702020202020306020504070669
:10070D0007070602000000000000003F60213C4882
:10071D0060202020201F3320070202020202030660
:10072D00020504070607070602000000000000008E
:10073D003F60213CCC400101010101320107000065
:10074D00000000010200050407060706070200006D
:10075D0000000000003F60213C8A400202020201BD
:10076D003302070000000000010200050407060720
:10077D00070602000000000000003F60213CAB4076
:10078D000404040403330407000000000001020008
:10079D000504070607070602000000000000003FE1
:1007AD0060213C694008080808073308070000006D
:1007BD0000000102000504070607070602000000FD
:1007CD00000000003F60213BE540101010100F337A
:1007DD0010070000000000010200050407060707CE
:1007ED000602000000000000003F60213C06402092
:1007FD002020201F3320070000000000010200050B
:10080D0004070607070602000000000000003F6015
:10081D00213BC4202020201F3A01010702020202C1
:10082D000302020205040706060606020000000088
:10083D000000003F60213BA320040404032A0403AD
:10084D000706020202030202020504070606070656
:10085D0002000000000000003F483B9B040404031D
:10086D002A040307483B302020201F2A201F076041
:10087D00213B7A00040404032A0403070602020242
:10088D000302020205040706060706020000000027
:10089D000000003F033E0000000341000000034440
:0808AD000000000347000000F9
:1015010090E6F574FFF090E6F374A0F0E490E6C382
:10151100F090E6C1F090E6C27406F090E6C0744E19
:10152100F075AF077E3B7F7A1210007E3B7FA312DE
:1015310010007F02120E6E000000E490E6C4F0007D
:10154100000090E6C5F090E6C6F090E6C7F090E6A0
:10155100C8F090E6C9F090E6CAF090E6CBF090E6CC
:07156100CCF090E6CDF02272
:061C2C00E5BB30E7FB22DE
:101B7000000000E490E6D0F000000090E6D104F010
:051B8000C203021BADD1
:1016630030021C000000E490E6CFF000000090E69A
:10167300D0F000000090E6D104F0D203021BAD903D
:10168300E6F1E0FF74002539F58274F83538F58307
:10169300EFF0121C2C90E6F0E0FF74002539F58280
:0916A30074F83538F583EFF022EC
:101BAD000000002003047F0080027F068FBB000031
:041BBD0000021C2CDA
:10196200000000900003120BA790E6D1F0000000E7
:10197200900002120BA790E6D0F000000090000148
:0C198200120BA790E6CFF0C203021BADD1
:04193400AF3AAE39DF
:10193800AD07AC06ED2401FBE43CF59AAF03EFF5E7
:101948009B759DE48D828C83E0F59E7F0190E67BFC
:0A195800E090E67CF00FBF21F422BE
:100E6E00EF24FE6076147002E15A147002E16124E0
:100E7E00036002E19AE51F24F0601F1460291460DC
:100E8E003314603D14604724F46002E19A7E3B7F88
:100E9E00591210007E3C7FCCE15E7E3B7F0F12101C
:100EAE00007E3C7F8AE15E7E3B7F381210007E3CE6
:100EBE007FABE15E7E3A7FEE1210007E3C7F69E1F1
:100ECE005E7E3C7F271210007E3B7FE5E15E7E3C1E
:100EDE007F481210007E3C7F0680757E3D7F161285
:100EEE0010007E3D7F37121000E51F24F0601814AD
:100EFE00602214602C14603614604024F46002E109
:100F0E009A7E3C7FF58049903CF1E090E461F09050
:100F1E003CF28032903CF3E090E461F0903CF4803F
:100F2E0025903CEFE090E461F0903CF08018903D0D
:100F3E0058E090E461F0903D59800B903CEDE090CC
:100F4E00E461F0903CEEE090E462F0227E3D7F5A48
:100F5E000210007E3B7FA3121000E51F24EC7008E8
:100F6E0075323B753330800675323B75339BE4FF2B
:100F7E00E5332FF582E43532F583E0FE74202FF54C
:0D0F8E0082E434E4F583EEF00FBF08E422A6
:101000008E398F3A8F828E83E024E0604224E06044
:101010006E24E0700201AF2460600201E5783E8634
:101020000308E6FA08E6F9EB8A838982AA39A93A25
:101030007B016401700AE53A65827004E5396583D5
:10104000700201E5121934AA39A93A783E01DD7817
:1010500041860308E6FA08E6F9EB8A838982AA3911
:10106000A93A7B016401700AE53A65827004E539AA
:1010700065836071121934AA39A93A7841805E7883
:1010800044860308E6FA08E6F9EB8A838982AA39DE
:10109000A93A7B016401700AE53A65827004E5397A
:1010A00065836041121934AA39A93A7844802E78B0
:1010B00047860308E6FA08E6F9EB8A838982AA39AB
:1010C000A93A7B016401700AE53A65827004E5394A
:1010D00065836011121934AA39A93A784776010854
:0610E000A60208A6012291
:031C45008F1F22CC
:0408B500021C000021
:1015C10000000090E6047480F00000007402F00056
:1015D10000007406F0000000E4F090E614E0440816
:1015E100F0E054FCF0E04402F090E612E054F4F034
:1015F10090E615E0547FF090E613E0547FF0000090
:101601000090E6187405F00000007415F000000069
:0716110090E61A7409F022B3
:101A3D00E4FFFE90E68BE07012C3EF9410EE64802D
:101A4D0094A750070FBF00010E80E8C3EF9410EE6E
:091A5D00648094A7400122D32209
:0E1BE70090E6BEE07002A3E06002D322C322AB
:101A1300121BE7500C90E68BE07006121A3D400152
:101A230022E51D2403FFE4351CFE90E68BE0FDD385
:0A1A3300EF9DEE9400500122C32243
:1016AC008B328A338934121A1350277440251DF952
:1016BC00E434E7FA7B01C003C002C001AB32AA33A9
:1016CC00A934120C767403251DF51DE4351CF51C8C
:1016DC00D3227B007A007900C003C002C001AB3278
:0916EC00AA33A934120C76C322C2
:1017C00030020890E6487406F0802BE53330E014D0
:1017D0002400F58274F83532F583E4F00533E533FF
:1017E00070020532000000E53290E698F00000003B
:0817F00090E699E533F0D322E5
:0817F80090E6A7E020E1F922D0
:061C32001217F8021C2C41
:1000800090E6837402F07422F07416F07436F02255
:0B0FF500E490E670F075B2FBF580227E
:0B1C0E00E490E671F075B4FFF5A02231
:0C1C0200E490E672F075B64075B1402227
:0408B900C106C107AC
:101B1000C0E0C083C0825380FC53B1BFD207539151
:0E1B2000EF90E65D7408F0D082D083D0E03202
:1010E600C0E0C083C082D2065391EF90E65D7401E2
:0810F600F0D082D083D0E0327B
:101B4400C0E0C083C0825391EF90E65D7404F0D08E
:061B540082D083D0E032D4
:101B5A00C0E0C083C0825391EF90E65D7402F0D07A
:061B6A0082D083D0E032BE
:10180000C0E0C083C08290E680E030E70E85080C1F
:1018100085090D750E01750F0C800C750C00750D8A
:10182000EC750E01750F2C5391EF90E65D7410F07E
:07183000D082D083D0E0322A
:10183700C0E0C083C08290E680E030E70E85080CE8
:1018470085090D750E01750F0C800C750C00750D53
:10185700EC750E01750F2C5391EF90E65D7420F037
:07186700D082D083D0E032F3
:0110FE0032BF
:0110FF0032BE
:011C48003269
:011C49003268
:011C4A003267
:011C4B003266
:011C4C003265
:011C4D003264
:011C4E003263
:011C4F003262
:011C50003261
:011C51003260
:011C5200325F
:011C5300325E
:011C5400325D
:011C5500325C
:011C5600325B
:011C5700325A
:011C58003259
:011C59003258
:011C5A003257
:011C5B003256
:011C5C003255
:011C5D003254
:011C5E003253
:011C5F003252
:011C60003251
:011C61003250
:011C6200324F
:011C6300324E
:011C6400324D
:011C6500324C
:011C6600324B
:011C6700324A
:011C68003249
:1018D500C0E0C083C0825391BF90E6617402F0906E
:1018E500E6D1E0F51690E6D0E0F51790E6CFE0F505
:1018F5001890E6F574FFF0D205D082D083D0E0329F
:0908BD0002190001C109011B012F
:03000B0002178059
:10178000C0E0C0D0E51B14600904702FC28CD20ADF
:101790008029C28C758A00758C00C3E51A9428E5EF
:1017A0001964809480500C051AE51A70020519D24C
:1017B0008C8008D209751900751A00D0D0D0E0329B
:03003300021C416B
:041C410053D8EF3253
:0208C600C10A65
:101BC100C2AFC28CE4F58E5389F0438901C2B9D208
:041BD100A9D2AF22C4
:101AD300C2AFC28C8D1BC20AC3E49FFDE49EFCED22
:0F1AE300F58AECF58CD2A9D2AFD28C300AFD2255
:1008C80060213D1660010000212F01B707020202D6
:1008D80003071203020407060606060602000000C4
:1008E800120900123F423CF10201423CF304034268
:1008F8003CEF0807423D58100F423CED201F602195
:100908003CF5600101192701AF0107020203071234
:100918000300020407060606060402000012090086
:1009280012003F60213D3740010101220102070703
:100938000000000102000100050407060706060280
:08094800000000000000093F5F
:1009500060213D5A6001010101010101070202020B
:100960000202020602020202020202020200000069
:05097000000000003F43
:100090001201000200000040FD0308000000010200
:1000A00000010A06000200000040050009022000CD
:1000B000010100802D0904000002FF000000070577
:1000C00002024000000705860240000009022000ED
:1000D000010200802D0904000002FF000000070556
:1000E0000202000200070586020002000902200049
:1000F00001030080280904000002FF00000007053A
:1001000002024000000705860240000009072000A7
:1001100001040080280904000002FF000000070518
:100120000202400000070586024000000907200087
:1001300001050080280904000002FF0000000705F7
:1001400002020002000705860200020004030904FF
:100150001003580049004C0049004E005800200090
:100160001603580049004C0049004E00580020007A
:08017000200020002000000027
:1019BB0090E682E030E004E020E60B90E682E03037
:1019CB00E119E030E71590E680E04401F07F147EEA
:0C19DB00001216F590E680E054FEF022A9
:101A8E0090E682E044C0F090E681F04387010000CA
:041A9E000000002222
:1019050030000990E680E0440AF0800790E680E028
:101915004408F07FDC7E051216F590E65D74FFF055
:0F19250090E65FF05391EF90E680E054F7F022E8
:1016F5008E328F3390E600E054187012E5332401E2
:10170500FFE43532C313F532EF13F533801590E658
:1017150000E05418FFBF100BE53325E0F533E53243
:1017250033F532E5331533AE32700215324E6005AE
:06173500121AA280EE2250
:0219E700A9074E
:1019E900AE14AF158F828E83A3E064037017AD0127
:1019F90019ED7001228F828E83E07C002FFDEC3E71
:091A0900FEAF0580DF7E007F00C6
:011A120022B1
:101AA2007400F58690FDA57C05A3E582458370F957
:011AB2002211
:03004300021100A7
:0300530002110097
:101100000210E600021B5A00021B4400021B1000E2
:1011100002180000021837000210FE000210FF0043
:10112000021C4800021C4900021C4A00021C4B0021
:10113000021C4C00021C4D00021C4E00021C4F0001
:10114000021C50000210FF00021C5100021C520041
:10115000021C5300021C5400021C5500021C5600C5
:10116000021C57000210FF000210FF000210FF00D7
:10117000021C5800021C5900021C5A00021C5B0091
:10118000021C5C00021C5D00021C5E00021C5F0071
:10119000021C6000021C6100021C6200021C630051
:1011A000021C6400021C6500021C6600021C670031
:0811B000021C68000218D500C2
:0219B90007D451
:0300000002139454
:0C139400787FE4F6D8FD7581490213DB78
:100B8E00BB010689828A83E0225002E722BBFE0265
:090B9E00E32289828A83E4932298
:100BA700BB010CE58229F582E5833AF583E0225003
:100BB70006E92582F8E622BBFE06E92582F8E2224D
:0D0BC700E58229F582E5833AF583E4932267
:100BD400BB010A89828A83E0F5F0A3E022500687EC
:100BE400F009E71922BBFE07E3F5F009E3192289AE
:0B0BF400828A83E493F5F074019322E1
:100BFF00EB9FF5F0EA9E42F0E99D42F0E89C45F04C
:010C0F0022C2
:100C1000E8600FECC313FCED13FDEE13FEEF13FFC2
:030C2000D8F122E6
:100C2300E8600FEFC333FFEE33FEED33FDEC33FC2F
:030C3300D8F122D3
:100C3600BB010789828A83020CF75005E9F8020C8A
:100C4600EBBBFE05E9F8020D0389828A83020D0FCC
:100C56007401FF3395E0FEFDFC080808E62FFFF659
:100C660018E63EFEF618E63DFDF618E63CFCF622D2
:100C7600BB011A89828A83D0F0D0E0F8D0E0F9D09F
:100C8600E0FAD0E0FBE8C0E0C0F0020D285016E91B
:100C9600F8D083D082D0E0F9D0E0FAD0E0FBC08271
:100CA600C083020D1FBBFE16E9F8D083D082D0E0C8
:0F0CB600F9D0E0FAD0E0FBC082C083020D3122FA
:100CC500D083D082F8E4937012740193700DA3A3BE
:100CD50093F8740193F5828883E4737402936860D2
:060CE500EFA3A3A380DFD2
:1013A000021AB3E493A3F8E493A34003F68001F296
:1013B00008DFF48029E493A3F85407240CC8C3334E
:1013C000C4540F4420C8834004F456800146F6DF1D
:1013D000E4800B010204081020408090064BE47E5C
:1013E000019360BCA3FF543F30E509541FFEE49312
:1013F000A360010ECF54C025E060A840B8E493A3D9
:10140000FAE493A3F8E493A3C8C582C8CAC583CA03
:10141000F0A3C8C582C8CAC583CADFE9DEE780BEBB
:010975000081
:0C0CEB00E6FC08E6FD08E6FE08E6FF2235
:0C0CF700E0FCA3E0FDA3E0FEA3E0FF2270
:0C0D0300E2FC08E2FD08E2FE08E2FF222C
:100D0F00E493FC740193FD740293FE740393FF222A
:090D1F00EBF608EAF608E9F622F9
:090D2800EBF0A3EAF0A3E9F022CC
:090D3100EBF208EAF208E9F222F3
:00000001FF
