:0A1D2F00000102020303040405058D
:0C06D900C102C101C105C184C103C10000
:10170D0012189012156E300205C202120C4C3000E8
:10171D0014C2A990E600E054E7441054FDF0C20055
:10172D00D206121AC6300524C205121C1C20011641
:10173D0090E682E030E704E020E1EF90E682E030D1
:10174D00E604E020E0E4121B23121CFE1219BB80FC
:01175D00B5D6
:100C4C0090E6B9E0B4B0091201785002C163C15CFE
:100C5C0090E6B9E0B40C004002C15C900C6D25E04C
:100C6C007381FFA173C15CA1F0C15CC15C8185C1C2
:100C7C005C81FA81F581EB81F090E6BBE024FE60AB
:100C8C002214603324FD601114602224067047E5A1
:100C9C000A90E6B3F0E50B8037E51290E6B3F0E589
:100CAC0013802DE50C90E6B3F0E50D8023E50E9056
:100CBC00E6B3F0E50F801990E6BAE0FF121B4FAADD
:100CCC0006A9077B01EA494B600CEE90E6B3F0EF06
:100CDC0090E6B4F0A17190E6A0E04401F0A171128D
:100CEC001CD9A171121D0B807C1212ABC154121CA9
:100CFC00C5C15490E6B8E0247F600F146013240241
:100D0C00705CA201E43325E08041E490E740F08080
:100D1C003F90E6BCE0547EFF7E00E0D394807C00E4
:100D2C0040047D0180027D00EC4EFEED4F242FF53A
:100D3C0082741D3EF583E493FF3395E0FEEF24A10E
:100D4C00FFEE34E68F82F583E0540190E740F0E447
:100D5C00A3F090E68AF090E68B7402F0800790E6A0
:100D6C00A0E04401F0C15490E6B8E024FE601124E8
:100D7C0002706F90E6BAE0B40104C2018064805B3B
:100D8C0090E6BAE0705590E6BCE0547EFF7E00E041
:100D9C00D394807C0040047D0180027D00EC4EFEEB
:100DAC00ED4F242FF582741D3EF583E493FF3395AC
:100DBC00E0FEEF24A1FFEE34E68F82F583E054FED3
:100DCC00F090E6BCE05480131313541FFFE0540F53
:100DDC002F90E683F0E04420F0800790E6A0E044FA
:100DEC0001F08064121D56505F90E6B8E024FE605E
:100DFC001C2402705390E6BAE0B40104D20180487E
:100E0C0090E6BAE06402604090E6A0803790E6BCC1
:100E1C00E0547EFF7E00E0D394807C0040047D0192
:100E2C0080027D00EC4EFEED4F242FF582741D3EAA
:100E3C00F583E493FF3395E0FEEF24A1FFEE34E657
:100E4C008F82F583E04401F090E6A0E04480F0222C
:070E5C0090E6A0E04401F064
:010E6300226C
:10156E00750A00750B907512007513A2750800753B
:10157E0009CC7510007511EC75140175154C750CB0
:10158E0000750DAC750E01750F0CD2E843D8209086
:10159E00E668E0440BF090E65CE0443DF0D2EA00F1
:1015AE00000090E660E04402F0121C59D2AF90E6C3
:1015BE00FB7402F090E600E054E5F090E601740A48
:1015CE00F0121D18121D24121D391215E6D2061224
:0815DE001AC6538EF8C2052263
:101C5900C2AFC28C758E035389F0438901E4F58ABA
:071C6900F58CC2B9D2A922DB
:100090001201000200000040FD0308000000010200
:1000A00000010A06000200000040050009022000CD
:1000B000010100808C0904000002FF000000070518
:1000C00002024000000705860240000009022000ED
:1000D000010200808C0904000002FF0000000705F7
:1000E0000202000200070586020002000902200049
:1000F000010300804B0904000002FF000000070517
:1001000002024000000705860240000009072000A7
:10011000010400804B0904000002FF0000000705F5
:100120000202400000070586024000000907200087
:10013000010500804B0904000002FF0000000705D4
:1001400002020002000705860200020004030904FF
:100150001003580049004C0049004E005800200090
:100160001603580049004C0049004E00580020007A
:08017000200020002000000027
:1006E500011D116021E06760010101012B01010776
:1006F50002020202030602020100030203020202D1
:10070500000000000000003F6021E02560020202B9
:10071500020133020702020202020306020100037C
:100725000203030202000000000000003F6021E018
:1007350046600404040403330407020202020203B0
:10074500060201000302030302020000000000008C
:10075500003F6021E004600101080807330107023A
:100765000202020203060201000302030302020061
:100775000000000000003F6021E12D601010101006
:100785000F331007020202020203060201000302F0
:1007950003030202000000000000003F6021E14E5B
:1007A50060202020201F33200702020202020306D8
:1007B5000201000302030302020000000000000022
:1007C5003F6021E1D2400101010101320107000032
:1007D5000000000102000100030203020302000001
:1007E50000000000003F6021E1904002020202018A
:1007F50033020700000000000102000100030203AC
:10080500030202000000000000003F6021E1B1404A
:10081500040404040333040700000000000102007F
:100825000100030203030202000000000000003F74
:100835006021E16F40080808080733080700000039
:100845000000010200010003020303020200000090
:10085500000000003F6021E0EB40101010100F3346
:10086500100700000000000102000100030203035D
:100875000202000000000000003F6021E10C402062
:100885002020201F33200700000000000102000186
:1008950000030203030202000000000000003F60A5
:1008A50021E0CA202020201F3A010107020202028E
:1008B500030202020100030202020202000000001C
:1008C5000000003F6021E0A920040404032A04037A
:1008D50007060202020302020201000302020302EA
:1008E50002000000000000003F6021E088000404D1
:1008F50004032A040307060202020302020201009E
:10090500030202030202000000000000003F014C48
:1009150000014D00034E0000000351000000035488
:08092500000000035700000070
:1015E60090E6F574FFF090E6F374A0F0E490E6C39D
:1015F600F090E6C1F090E6C27402F090E6C0744E38
:10160600F075AF077EE07F881210F57EE07FA912A5
:1016160010F57EE17FB11210F57EE07F461210F5DF
:10162600000000E490E6C4F000000090E6C5F090EB
:10163600E6C6F090E6C7F090E6C8F090E6C9F090EE
:10164600E6CAF090E6CBF090E6CCF090E6CDF0223C
:061D4A00E5BB30E7FB22BF
:101C9C00000000E490E6D0F000000090E6D104F0E3
:051CAC00C209021CB199
:10175E0030081C000000E490E6CFF000000090E698
:10176E00D0F000000090E6D104F0D209021CB19036
:10177E00E6F1E0FF7400253CF58274F8353BF58305
:10178E00EFF0121D4A90E6F0E0FF7400253CF58262
:09179E0074F8353BF583EFF022ED
:101CB1000000002009047F0080027F068FBB000026
:041CC10000021D4AB6
:101962008F358E348D338C3200000090E6D1EFF04B
:1019720000000079087808120B228F358E348D33DF
:101982008C3290E6D0EFF00000007808120B228F24
:10199200358E348D338C3290E6CFEFF0C209021CC3
:0119A200B193
:041AF500AF3AAE391D
:041AF900AD07AC0683
:101AFD00ED2401FBE43CF59AAF03EFF59B759DE4F6
:101B0D008D828C83E0F59E7F0190E67BE090E67CF4
:051B1D00F00FBF21F4F0
:011B220022A0
:10100000784CE6B5070808E6651D700201F4784CD7
:10101000A60708A61DEF24FE606B04600201F4E53C
:101020001D24F0601F14602914603314603D1460A7
:101030004724F4600201F47EE07F671210F57EE140
:101040007FD280697EE07F251210F57EE17F90805F
:101050005C7EE07F461210F57EE17FB1804F7EE03E
:101060007F041210F57EE17F6F80427EE17F2D12BA
:1010700010F57EE07FEB80357EE17F4E1210F57E2D
:10108000E17F0C80287E1F7F211210F57E1F7F00DC
:101090001210F5E51D24F0601714602114602B1464
:1010A000603514603F24F4704B7E1E7FDF0210F524
:1010B000901EDBE090E461F0901EDC8032901EDD3B
:1010C000E090E461F0901EDE8025901ED9E090E46F
:1010D00061F0901EDA8018901F42E090E461F09079
:1010E0001F43800B901ED7E090E461F0901ED8E083
:0410F00090E462F036
:0110F40022D9
:0410F5008E398F3A67
:1010F9008F828E83E024E0604224E0606E24E070F9
:101109000221A42460600221DA784E860308E6FAF7
:1011190008E6F9EB8A838982AA39A93A7B01640135
:10112900700AE53A65827004E5396583700221DA4F
:10113900121AF5AA39A93A784E21D27851860308AC
:10114900E6FA08E6F9EB8A838982AA39A93A7B018A
:101159006401700AE53A65827004E5396583607156
:10116900121AF5AA39A93A7851805E78548603088B
:10117900E6FA08E6F9EB8A838982AA39A93A7B015A
:101189006401700AE53A65827004E5396583604156
:10119900121AF5AA39A93A7854802E785786030885
:1011A900E6FA08E6F9EB8A838982AA39A93A7B012A
:1011B9006401700AE53A65827004E5396583601156
:1011C900121AF5AA39A93A7857760108A60208A68B
:0111D9000114
:0111DA0022F2
:031D63008F1D22AF
:05092D00014500C10CB2
:1019BB00200D1F200A19E58030E209E58054FC4414
:1019CB0009FF8007E58054DC440BFF8F80800343C5
:1019DB00800AE5B120E10653B6A7D20C22300C0ADF
:0B19EB00E5B130E10543B658C20C2204
:0D1CFE00C20D121D18121D24121D39D32213
:1012AB0090E6BAE090E000F012008090E680E0302B
:1012BB00E71800000090E6247402F0000000E490B0
:1012CB00E625F0F5497548018017000000E490E62B
:1012DB0024F000000090E6257440F0E4754920F5F9
:1012EB0048F547F546E490E6FBF090E60174EAF02A
:0412FB00D28CD3229C
:101CC50090E000E090E740F0E490E68AF090E68B43
:041CD50004F0D32222
:0D1D0B0090E6BAE090E001F0120080D322D3
:101CD90090E001E090E740F0E490E68AF090E68B2E
:041CE90004F0D3220E
:051D5600120080D32201
:10017800E4F522F523F524F525F526F527F531F5DF
:1001880030F52FF52ED20790E6BBE0F52F90E6BDAF
:10019800E0F53090E6BCE0F53190E6BAE064A67090
:1001A8007190E6A0E04480F07F02121000782E12D1
:1001B8000B68EF5403FFE48F45AF31AE30AD2FAC81
:1001C8002E7802120B228F318E308D2F8C2EE54522
:1001D8007016E53124FFFFE53034FFFEE52F34FFCC
:1001E800FDE52E34FFFC8008AF31AE30AD2FAC2ECC
:1001F8008F318E308D2F8C2EE54570047F04800260
:10020800AF458F45854535AB31AD30AF2F1213B8AB
:10021800C1D790E6BAE0120BD706B21006AD1806A1
:100228009E20068A2806853006943806A34006A82C
:100238005006995202A36802D06C06B77006B771CF
:1002480006B77206B77306B77406B77506B77606AB
:10025800B77706B77806B77906B77A06B77B06B7D1
:100268007C06B77D06B77E06B77F02C58802CA8AB4
:1002780002C58C02CA8E02C59002CA9202C59402B7
:10028800CA9602C59802CA9A02C59C02CA9E06C9A5
:10029800A002D0A202D0A4000006D57EE07FA91259
:1002A80010F590E6BCE0044420F5A0121D4AE49045
:1002B800E6F0F090E6BDE090E6F1F0C1CC5380EFB7
:1002C800C20730070343801090E6BAE0F52DE53108
:1002D8002401F531E43530F530E4352FF52FE435D8
:1002E8002EF52EE52D2470700261C224FE70026185
:1002F800C224FE700261C224FE700261C224F26050
:10030800062402600261C5E4F519F51A90E68BF03F
:100318001217F050267B007A0079251217A7501B78
:10032800AB25AA26A9271209D2F52890000112099F
:10033800EBF5299000021209EBF52A90E6A0E044BB
:1003480080F07F01121000E5315407FFE48F45AFBC
:1003580031AE30AD2FAC2E7803120B228F318E3098
:100368008D2F8C2EE5457016E53124FFFFE53034DE
:10037800FFFEE52F34FFFDE52E34FFFC8008AF318A
:10038800AE30AD2FAC2E8F318E308D2F8C2EE545B3
:1003980070047F088002AF458F45438080E4FFFEEC
:1003A800FDFCAB31AA30A92FA82EC3120B11600493
:1003B8007F088002AF458FA081B575226090E6A0C6
:1003C800E04480F0E52270037522A07F011210003E
:1003D800E531540FFFE48F45AF31AE30AD2FAC2E71
:1003E8007804120B228F318E308D2F8C2EE54560CC
:1003F80013E5312401FFE43530FEE4352FFDE43503
:100408002EFC8008AF31AE30AD2FAC2E8F448E431A
:100418008D428C41AB49AA48A947A846120A7FAC2D
:1004280000AD01AE02AF03E4FBFAF9F8C3120B11F9
:100438007006AF49AE488017AB49AA48A947A846F5
:10044800AF44AE43AD42AC41120A7FAE02AF038E59
:100458004A8F4BE5457016E53124FFFFE53034FF40
:10046800FEE52F34FFFDE52E34FFFC8008AF31AEEA
:1004780030AD2FAC2E8F318E308D2F8C2EE5457000
:10048800047F108002AF458F4553807FE4FFFEFD57
:10049800FCAB31AA30A92FA82EC3120B116007E5B7
:1004A800224410FF8005E5224545FF8FA05380BFF9
:1004B800E52D120BD706286C06288806288A0628F8
:1004C8008C06288E066F90066F92066F94066F96BC
:1004D80004EE9804EE9A04EE9C04EE9E0628A2040C
:1004E800EEA4000006D7E52DB4A40AE4F52B752C7C
:1004F80008C2068008752BA0752C10D206121D4262
:10050800E5312401F531E43530F530E4352FF52FA8
:10051800E4352EF52EE52DB4A403438080E47F0155
:10052800FEFDFCAB31AA30A92FA82EC3120B117007
:100538000B438040E52B4545F5A08006E52B452C6F
:10054800F5A0121D50121C9C53807F75A0E1A206D5
:10055800920885233B85243C12175E0524E5247008
:10056800020523E53124FFF531E53034FFF530E5A8
:100578002F34FFF52FE52E34FFF52E90E625E07099
:100588002DB52408E523B4020330060DE5247004D4
:10059800E52364017053300650E4FFFEFDFCAB31E7
:1005A800AA30A92FA82ED3120B11403D8029E5248B
:1005B80064404523700330060BE52464204523700E
:1005C80028300625E4FFFEFDFCAB31AA30A92FA890
:1005D8002ED3120B114012A20692088523328524CD
:1005E800331219F6E4F523F524E4FFFEFDFCAB31E4
:1005F800AA30A92FA82ED3120B114002A11DA206C2
:100608009208753B00753C00753D2385453E1211E7
:10061800DBA20692088523328524331219F6C1D746
:10062800E4FFFEFDFCAB31AA30A92FA82ED3120B94
:1006380011400E121D50AF31AE30AD2FAC2E121935
:1006480062E5A054E04545F5A0438040121C9CE5B6
:100658008030E70353807FE526452745256070AB4A
:100668002AAD29AF28805575360075370075384A88
:100678007B007A00792EAD451214548052120F98DF
:10068800804290E6BCE0FF121D63803812191E807C
:1006980033121BCE802E1216B38029121C8680249A
:1006A800121656801F121CED801A121D5F801590BD
:1006B800E6BAE0FF90E6BCE0FDA3E0FB120E648022
:1006C8000E121A6290E6A0E04480F08002C322D3A2
:0106D80022FF
:101B230090E682E030E004E020E60B90E682E030CD
:101B3300E119E030E71590E680E04401F07F147E80
:0C1B4300001218D890E680E054FEF0225A
:101C1C0090E682E044C0F090E681F043870100003A
:041C2C000000002292
:101AC60030060990E680E0440AF0800790E680E060
:101AD6004408F07FDC7E051218D890E65D74FFF0AE
:0F1AE60090E65FF05391EF90E680E054F7F02226
:021B4F00A907E4
:101B5100AE14AF158F828E83A3E064037017AD01BD
:101B610019ED7001228F828E83E07C002FFDEC3E07
:091B7100FEAF0580DF7E007F005D
:011B7A002248
:1018D8008E328F3390E600E054187012E5332401FD
:1018E800FFE43532C313F532EF13F533801590E674
:1018F80000E05418FFBF100BE53325E0F533E5325F
:1019080033F532E5331533AE32700215324E6005C9
:06191800121C3080EE22DB
:101C30007400F58690FDA57C05A3E582458370F9C7
:011C40002281
:03004300021300A5
:0300530002130095
:10130000021C4100021C70000219A300021BF6001F
:101310000218000002184800020FFE00020FFF0032
:101320000212FF000217FE000217FF00021D6600F6
:10133000021D6700021D6800021D6900021D6A008F
:10134000021D6B00020FFF00021D6C00021D6D00EC
:10135000021D6E00021D6F00021D7000021D710053
:10136000021D7200020FFF00020FFF00020FFF00BC
:10137000021D7300021D7400021D7500021D76001F
:10138000021D7700021D7800021D7900021D7A00FF
:10139000021D7B00021D7C00021D7D00021D7E00DF
:1013A000021D7F00021D8000021D8100021D8200BF
:0813B000021D8300021A9600E1
:02093200C10DF5
:101BF600C0E0C083C08275B20B5380F075B6007525
:101C0600B400D205D20D5391EF90E65D7408F0D082
:061C160082D083D0E03211
:101C4100C0E0C083C082D2025391EF90E65D74017F
:081C5100F0D082D083D0E03214
:1019A300C0E0C083C0825391EF90E65D7404F0D031
:0619B30082D083D0E03277
:101C7000C0E0C083C0825391EF90E65D7402F0D063
:061C800082D083D0E032A7
:10180000C0E0C083C082C0D075D000C006C00790C1
:10181000E680E030E70E85080C85090D750E017530
:101820000F0C800E7E007FEC8E0C8F0D750E0175F7
:101830000F2C5391EF90E65D7410F0D007D006D0D6
:08184000D0D082D083D0E03249
:10184800C0E0C083C082C0D075D000C006C0079079
:10185800E680E030E70E85080C85090D750E0175E8
:101868000F0C800E7E007FEC8E0C8F0D750E0175AF
:101878000F2C5391EF90E65D7420F0D007D006D07E
:08188800D0D082D083D0E03201
:010FFE0032C0
:010FFF0032BF
:0112FF0032BC
:0117FE0032B8
:0117FF0032B7
:011D6600324A
:011D67003249
:011D68003248
:011D69003247
:011D6A003246
:011D6B003245
:011D6C003244
:011D6D003243
:011D6E003242
:011D6F003241
:011D70003240
:011D7100323F
:011D7200323E
:011D7300323D
:011D7400323C
:011D7500323B
:011D7600323A
:011D77003239
:011D78003238
:011D79003237
:011D7A003236
:011D7B003235
:011D7C003234
:011D7D003233
:011D7E003232
:011D7F003231
:011D80003230
:011D8100322F
:011D8200322E
:011D8300322D
:101A9600C0E0C083C0825391BF90E6617402F090AB
:101AA600E6D1E0F51690E6D0E0F51790E6CFE0F542
:101AB6001890E6F574FFF0D20BD082D083D0E032D6
:0219B900040622
:0409340002190000A4
:1018900000000090E6047480F00000007402F00084
:1018A00000007406F0000000E4F090E612E054F44A
:1018B000F090E615E0547FF090E613E0547FF000DE
:1018C000000090E6187405F00000007415F00000A8
:0818D0000090E61A7409F022F1
:101BA500E4FFFE90E68BE07012C3EF9410EE6480C4
:101BB50094A750070FBF00010E80E8C3EF9410EE05
:081BC500648094A7400122D3C3
:011BCD0022F5
:0E17F00090E6BEE07002A3E06002D322C322A6
:101B7B001217F0500C90E68BE07006121BA540017B
:101B8B0022E51A2403FFE43519FE90E68BE0FDD322
:0A1B9B00EF9DEE9400500122C322DA
:1017A7008B328A338934121B7B50277440251AF9F0
:1017B700E434E7FA7B01C003C002C001AB32AA33AD
:1017C700A934120B887403251AF51AE43519F5198B
:1017D700D3227B007A007900C003C002C001AB327C
:0917E700AA33A934120B88C322B5
:1019F60030080890E6487406F0802BE53330E01492
:101A06002400F58274F83532F583E4F00533E533C6
:101A160070020532000000E53290E698F000000002
:081A260090E699E533F0D322AC
:081D420090E6A7E020E1F92280
:061D5000121D42021D4AB3
:1000800090E6837402F07422F07416F07436F02255
:0C1D1800E490E670F075B2FB75800822C4
:0B1D2400E490E671F075B4FFF5A0221A
:091D3900E490E672F075B6D822C0
:04093800021B00019D
:03000B00021A2EA8
:101A2E00C0E0C0D0C28CC3E51C9428E51B64809432
:101A3E00805012758A00758C00051CE51C7002051D
:101A4E001BD28C800AE51C6428451B7002D200D084
:041A5E00D0D0E032D2
:03003300021D5B50
:041D5B0053D8EF3238
:10093C0060211F2160010000212F01B70702020274
:10094C00030712030200030202020202020000006B
:10095C00120900123F421EDB0201421EDD0403425B
:10096C001ED90807421F42100F421ED7201F6021BC
:10097C001EDF600101192701AF01070202030712F4
:10098C00030002000302020202000200001209002E
:10099C0012003F60211F00400101012201020707E4
:1009AC000000000102000100010003020302020228
:0809BC00000000000000093FEB
:0D09C400C10AC10B01160001170001180047
:1013B800E490E6CEF000000090E6CFEFF0000000E9
:1013C80090E6D0EDF000000090E6D1EBF05380BF3E
:1013D800121D4275360275370490E6D0E0FF90E69C
:1013E800D1E04FFF90E6CFE04F604B438080E53778
:1013F8004420F5A0E4F5BB121D4A300BDC75A04172
:1014080090E6D17401F0000000E490E6D0F000000E
:101418000090E6CFF0D209121CB190E6D1E516F0A3
:1014280000000090E6D0E517F000000090E6CFE558
:1014380018F0C20B80A385353743804090E6D174FD
:0B14480001F0D5369490E6487406F0E1
:011453002276
:101BCE0090E6BCE0B4010CD20A75B20AE4F5B47525
:101BDE00B65822C20A75B2FB75802075B4FF75A087
:081BEE001075B6FC75B1C022B0
:1016B30090E6BCE05402C43354E0FFE05401C43369
:1016C300333354804FFFE0540433333354F84FFF24
:1016D300E0540825E04FFFE05410C3134FFFE054DC
:1016E30020131313541F4FFFE05440C41354074FE8
:1016F300FFE05480C413131354014F90E740F0E408
:0A17030090E68AF090E68B04F022D5
:101C860090E74074B5F0A37403F0E490E68AF09010
:061C9600E68B7402F0224F
:101A620090E6A0E04480F090E680E054FDF0E0448F
:101A720008F07FF47E011218D890E65D74FFF090B2
:101A8200E65FF05391EF90E6FB7402F090E680E09F
:041A920054F7F022F3
:1016560090E6BCE014601504703E9019B9E493FC62
:1016660074019390E740F0ECA3F0803553807F75CA
:10167600A04143B60443B10490E6F1E090E740F0A0
:1016860090E6F2E090E740F090E6F0E090E741F077
:1016960053B1FB53B6FB800990E7407405F0A304F1
:0D16A600F0E490E68AF090E68B7402F022EA
:041D5F005380DF22AC
:101CED00E58030E207E5804420FF8002AF808F80E1
:011CFD0022C4
:10191E00300A0EE5B15420C413540790E740F0800E
:10192E002853B10453807F75A04190E6F1E090E713
:10193E0040F0E58090E6F230E206E04440FF80049D
:10194E00E054BFFF90E740EFF0E490E68AF090E6B7
:04195E008B04F022E4
:1011DB00200802417CE53EC39410400241AAAB3B80
:1011EB00AA3CA93D120A1824FFFFE5F034FFFEEFDD
:1011FB0025E0FDEE33FC74012DF58274F83CF5838C
:10120B00E0FE74002DF58274F83CF583E07C00243D
:10121B0000F540EC3EF53FC37410953EFDE540AE46
:10122B003FA805088005CEC313CE13D8F9FCAB3B02
:10123B00AA3CA93D120A1824FFFFE5F034FFFEEF8C
:10124B0025E0FBEE33FA74002BF58274F83AF58344
:10125B00ECF0E540AE3FA805088005CEC313CE13D6
:10126B00D8F9EEFF74012BF58274F83AF583EFF0A1
:10127B0022AB3BAA3CA93DAE02AF01EF4E60201260
:10128B000A1824FFF58274F735F0F583E0FFC37479
:0F129B0008953EFEEFA806088002C313D8FCF0AA
:0112AA002221
:081454008D358B328A33893497
:10145C00E4F539F53A120B48E4FBFAF9F8C3120B30
:10146C0011503AE490E6CEF0000000AB32AA33A95A
:10147C00349000011209EB90E6CFF00000009000D0
:10148C00021209EB90E6D0F0000000900003120964
:10149C00EB90E6D1F0121D4AD209121CB190E699DC
:1014AC00E0F53A90E698E0F539438040E5A054E049
:1014BC004535F5A0D208E4F53BF53C12175ED20891
:1014CC0085363B85373C85383D85353E1211DB90A2
:0514DC00E6487406F073
:0114E10022E8
:100F9800300A4D90E6BCE030E602800090E6BCE006
:100FA80030E502800090E6BCE030E4028000AFB19A
:100FB80090E6BCE030E20543070880035307F7904A
:100FC800E6BCE030E10543071080035307EF90E6E5
:100FD800BCE030E00543074080035307BF8FB122D0
:100FE8007EE07FA91210F553807F75A08190E6BC42
:050FF800E090E6F1F0BD
:010FFD0022D1
:060E64008F328D338B3448
:100E6A00E4F538F537F536F53590E6A0E04480F03C
:100E7A007EE07FCA1210F5E532248824F8500280F9
:100E8A000853807F53A01F800B53807FE5A0541F17
:100E9A0044C0F5A0E5322490B410005039900EB148
:100EAA0025E05002058373C1D1C1D1C1DBC1DBC1C9
:100EBA00D1C1D1C1DBC1DBC1D1C1D1C1DBC1DBC170
:100ECA00D1C1D1C1DBC1DBE58054AF4440F580809C
:100EDA000843805080035380EFE4853438F537F5B2
:100EEA0036F535AF38AE37AD36AC357808120B3536
:100EFA00EEFAE533F538EAF537E4F536F535E5384F
:100F0A002401F538E43EF537E43536F536E435356F
:100F1A00F535E4FFFE7D01FCAB38AA37A936A835C2
:100F2A00C3120B11700A7538FF7537FFF536F535A0
:100F3A00121D4AAF38AE37AD36AC357808120B22DF
:100F4A0090E6F0EFF090E6F1E538F0121D4AE5324E
:100F5A0064796029E532647B6023E532647D601D33
:100F6A00E532647F6017E53264716011E5326473BB
:100F7A00600BE53264756005E532B4771090E7409E
:0D0F8A00E532F0E490E68AF090E68B04F08A
:010F97002237
:030000000214E205
:0C14E200787FE4F6D8FD758159021529C9
:1009D200BB010689828A83E0225002E722BBFE0223
:0909E200E32289828A83E4932256
:1009EB00BB010CE58229F582E5833AF583E02250C1
:1009FB0006E92582F8E622BBFE06E92582F8E2220B
:0D0A0B00E58229F582E5833AF583E4932224
:100A1800BB010A89828A83E0F5F0A3E022500687A9
:100A2800F009E71922BBFE07E3F5F009E31922896B
:0B0A3800828A83E493F5F0740193229E
:100A430075F008758200EF2FFFEE33FECD33CDCC6A
:100A530033CCC58233C5829BED9AEC99E5829840ED
:100A63000CF582EE9BFEED9AFDEC99FC0FD5F0D6CA
:100A7300E4CEFBE4CDFAE4CCF9A88222B800C1B9F4
:100A83000059BA002DEC8BF084CFCECDFCE5F0CB32
:100A9300F97818EF2FFFEE33FEED33FDEC33FCEB6B
:100AA30033FB10D703994004EB99FB0FD8E5E4F926
:100AB300FA227818EF2FFFEE33FEED33FDEC33FC13
:100AC300C933C910D7059BE99A4007EC9BFCE99A07
:100AD300F90FD8E0E4C9FAE4CCFB2275F010EF2F4C
:100AE300FFEE33FEED33FDCC33CCC833C810D7074C
:100AF3009BEC9AE899400AED9BFDEC9AFCE899F887
:0E0B03000FD5F0DAE4CDFBE4CCFAE4C8F92219
:100B1100EB9FF5F0EA9E42F0E99D42F0E89C45F03A
:010B210022B1
:100B2200E8600FECC313FCED13FDEE13FEEF13FFB1
:030B3200D8F122D5
:100B3500E8600FEFC333FFEE33FEED33FDEC33FC1E
:030B4500D8F122C2
:100B4800BB010789828A83020C095005E9F8020B68
:100B5800FDBBFE05E9F8020C1589828A83020C2187
:100B68007401FF3395E0FEFDFC080808E62FFFF648
:100B780018E63EFEF618E63DFDF618E63CFCF622C1
:100B8800BB011A89828A83D0F0D0E0F8D0E0F9D08E
:100B9800E0FAD0E0FBE8C0E0C0F0020C3A5016E9F9
:100BA800F8D083D082D0E0F9D0E0FAD0E0FBC08260
:100BB800C083020C31BBFE16E9F8D083D082D0E0A6
:0F0BC800F9D0E0FAD0E0FBC082C083020C4322D8
:100BD700D083D082F8E4937012740193700DA3A3AD
:100BE70093F8740193F5828883E4737402936860C1
:060BF700EFA3A3A380DFC1
:1014EE0002170DE493A3F8E493A34003F68001F2F0
:1014FE0008DFF48029E493A3F85407240CC8C333FF
:10150E00C4540F4420C8834004F456800146F6DFCD
:10151E00E4800B01020408102040809006D9E47E7E
:10152E00019360BCA3FF543F30E509541FFEE493C2
:10153E00A360010ECF54C025E060A840B8E493A389
:10154E00FAE493A3F8E493A3C8C582C8CAC583CAB4
:10155E00F0A3C8C582C8CAC583CADFE9DEE780BE6C
:0109D1000025
:0C0BFD00E6FC08E6FD08E6FE08E6FF2224
:0C0C0900E0FCA3E0FDA3E0FEA3E0FF225E
:0C0C1500E2FC08E2FD08E2FE08E2FF221B
:100C2100E493FC740193FD740293FE740393FF2219
:090C3100EBF608EAF608E9F622E8
:090C3A00EBF0A3EAF0A3E9F022BB
:090C4300EBF208EAF208E9F222E2
:00000001FF
